:100000000C9401010C9429010C9429010C942901F0
:100010000C9429010C9429010C9429010C942901B8
:100020000C9429010C9429010C946E080C94DD08A1
:100030000C9429010C9429010C9429010C94290198
:100040000C9429010C9429010C9429010C94290188
:100050000C9429010C9429010C9429010C94240876
:100060000C9429010C9429010C9429010C94290168
:100070000C9429010C9429010C9429010C94290158
:100080000C9429010C9429010C9429010C94290148
:100090000C9429010C9429010C9429010C94290138
:1000A0000C9429010C9429010C94290107060504DC
:1000B0000100080A0B0C0D09080B000202020000E7
:1000C00009040000010202000005240010010524BB
:1000D000010101042402060524060001070581032D
:1000E00010004009040100020A0000000705020296
:1000F00040000007058302400000040309041201C8
:100100000002EF0201406F2531C600010102030128
:10011000556E6B6E6F776E0053706163656D6F75B2
:1001200073650000000000250028002B002E003120
:100130000000000000240027002A002D00300005E8
:10014000010908A101A100850116008026FF7F3664
:10015000008046FF7F09300931093275109503810F
:1001600002C0A100850216008026FF7F360080466F
:10017000FF7F093309340935751095038102C0A149
:100180000085031500250175019520050919012930
:10019000208102C0C0000000002300260029002C9E
:1001A000002F0004040404040304050202020204F4
:1001B0000302020202060606060606040402020202
:1001C0000404040802011040804010204080408058
:1001D00008020401804020100201108010204040DD
:1001E000200000000200090F0000030401000C00C1
:1001F00000000000000000000000000000000000FF
:10020000F61211241FBECFEFDAE0DEBFCDBF22E031
:10021000AEE6B1E001C01D92A732B207E1F711E0EE
:10022000A0E0B1E0E6EEFCE202C005900D92AE3631
:10023000B107D9F711E0C1E0D1E004C02197FE0178
:100240000E945B14C030D107C9F70E940F0B0C94B9
:1002500071160C940000FC018091CD01882311F1EE
:100260003FB7F89482E08093E9002091F200822F5A
:1002700090E01816190614F481E090E0882339F014
:10028000289844E64093CC014091F100408322231A
:1002900039F02091F200211103C02BE62093E800F1
:1002A0003FBF08958FEF9FEF08953FB7F894809177
:1002B000C8019091C901A091CA01B091CB0126B5A6
:1002C000A89B05C02F3F19F00196A11DB11D3FBF8E
:1002D000BA2FA92F982F8827BC01CD01620F711D5D
:1002E000811D911D42E0660F771F881F991F4A9557
:1002F000D1F708958F929F92AF92BF92CF92DF92E3
:10030000EF92FF924B015C010E9455016B017C0151
:100310000E9455016C197D098E099F09683E734042
:1003200081059105A8F321E0821A9108A108B1087E
:1003300088EEC80E83E0D81EE11CF11C81149104E4
:10034000A104B10429F7FF90EF90DF90CF90BF9008
:10035000AF909F908F900895409197015091980190
:10036000209195013091960142175307B4F4909172
:10037000E8009570E1F39091E80092FD19C0809338
:10038000F100809197019091980101968F739927C0
:10039000892B19F48EEF8093E8008091970190915A
:1003A00098010196909398018093970181E00895B8
:1003B00080E00895EF92FF920F931F93CF93DF9306
:1003C000F82E192FE62E042F81E0860F880F0E9449
:1003D000AC0183E00E94AC01CF2DD12FEC0EFD2E9D
:1003E000F11CCE15DF05B9F007FF13C0FE018491A3
:1003F0000E94AC01182F80E00E94AC01812321965D
:100400008111EFCFDF91CF911F910F91FF90EF906E
:1004100008958881EDCF81E0F5CFDF92EF92FF92D2
:100420000F931F93CF93DF93D82E8A01EB017B01AB
:10043000E40EF51ECE15DF0559F0D7FE12C0FE0101
:1004400084910E94AC0121968111F4CF0FEF1FEF30
:10045000C801DF91CF911F910F91FF90EF90DF9036
:1004600008958881EECF2FB7F89487708093E900C4
:100470009091E800892F807295FF04C09091F2005E
:1004800080E4891B2FBF08957F928F929F92AF9235
:10049000BF92CF92DF92EF92FF920F931F93CF9371
:1004A000DF93C82E8B017A018091CD01811110C09C
:1004B0008FEF9FEFDF91CF911F910F91FF90EF9002
:1004C000DF90CF90BF90AF909F908F907F900895D6
:1004D00080919B0180FF05C08091E0008260809345
:1004E000E000CE2DDF2DD12C8AEFB82E8C2D877019
:1004F000982E8C2D8072882E8C2D8074782E9AE305
:10050000A92E209719F4DD2009F452C08C2D0E94E9
:10051000330281110AC0BA94BB2051F261E070E04D
:1005200080E090E00E947A01ECCF8C171D0611F05C
:100530000CF08C2F9FB7F8949092E9002091E8007E
:1005400025FD02C09FBFDDCF282F30E0C21BD30B9B
:10055000882029F08150A0F01092F100FBCFF80123
:10056000C7FC0AC0815050F041914093F100FACF8E
:1005700044914093F10031968150D0F7020F131F40
:10058000DD2021F0A092E800D12CDCCF8091E800A2
:1005900085FD07C0A092E800DD24D394209791F256
:1005A000F3CF209779F6772069F2A092E800CACFBE
:1005B0005D9884E680939A01C7017CCF615030F04A
:1005C0002091F100FC0120830196F8CF289884E661
:1005D0008093CC01089580918D0181110DC082E03E
:1005E0008093890184E080938A0110928C0110929B
:1005F0008B0181E080938D0189E891E008950F934C
:100600001F93CF93DF931F92CDB7DEB782E089832C
:1006100042E450E068EB70E080E80E940D020E9426
:10062000EB02DC0112960D911C910115110589F068
:10063000D801ED91FC910280F381E02DBE016F5F46
:100640007F4FC801099597FD04C0F8010085118509
:10065000ECCF89810F90DF91CF911F910F91089579
:10066000CF93DF93EC0180911201882331F083E076
:100670000E9444021816190634F081E090E09B8332
:100680008A8380E090E0DF91CF910895CF93DF934C
:100690001F92CDB7DEB76983DC01ED91FC9102803A
:1006A000F381E02D41E050E0BE016F5F7F4F09957F
:1006B0000F90DF91CF91089583E08093E9008091BE
:1006C000F200882319F08AE38093E800089583E01C
:1006D0000E94330290E00895CF93DF931F92CDB72D
:1006E000DEB7FC018485958597FD08C02FEF3FEFAD
:1006F000358724870F90DF91CF910895CE01019621
:100700000E942B01019719F4898190E0F3CF8FEFBC
:100710009FEFF0CF2FB7F8948091CE019091CF0149
:10072000A091D001B091D1012FBF8093DA019093B5
:10073000DB01A093DC01B093DD0182ED91E00E942A
:100740006C0397FF26C02FB7F8948091CE0190914B
:10075000CF01A091D001B091D1012FBF4091DA011A
:100760005091DB016091DC017091DD01841B950BE0
:10077000A60BB70B4091D6015091D7016091D801DB
:100780007091D90184179507A607B707B0F28FEFCC
:100790009FEF08950F931F93CF93DF931F92CDB7D1
:1007A000DEB78C01FC018485958597FF0BC0CE01D7
:1007B00001960E942B01019771F4898190E0F80164
:1007C00095878487F801848595850F90DF91CF9177
:1007D0001F910F9108958FEF9FEFF1CFFC0184855A
:1007E000958597FD0BC09FB7F89482E08093E90050
:1007F0008091F2009FBF90E0019608959FB7F89412
:1008000082E08093E9008091F2009FBF90E008951C
:10081000DC01FB0112962C91129784819581281797
:10082000190641F491818081813A31F49D7F81E004
:10083000913009F080E008958132E1F79B3029F48E
:1008400082811F968C9381E008959A3099F7828176
:1008500050968C93F8CFAF92BF92CF92DF92EF92E7
:10086000FF920F931F93CF93DF931F92CDB7DEB705
:100870007C0169836A01590141E050E0BE016F5F6C
:100880007F4FFC0183810E9444028C0197FD0BC0C5
:10089000F7018381A501B60180640E944402080F1C
:1008A000191F97FD8C01C8010F90DF91CF911F9107
:1008B0000F91FF90EF90DF90CF90BF90AF90089591
:1008C000DC01FB0188E4808389E4818384E4828302
:1008D0001D969C911D979F709F5B93831D968D9194
:1008E0009C9124E0969587952A95E1F78F708F5B10
:1008F000848385E00895EF92FF920F931F93CF9327
:10090000DF93FB012081213871F52381223259F5D3
:10091000DC0112964C91248135814217130619F59A
:10092000EC010B851C85F12CE12C0115110589F0DA
:10093000F801448155816281738180E80E940D0233
:100940008F3F980749F0E80EF91ED8010D911C91D0
:10095000ECCF81E08F87C701DF91CF911F910F917D
:10096000FF90EF90089590E080E0F6CFCF93DF9373
:10097000CDB7DEB769970FB6F894DEBF0FBECDBF17
:10098000FC01DB018C918F5F8C939E012D5F3F4FAB
:100990008DE0D9011D928A95E9F729E0298384E049
:1009A0008A8391E09D8383E08E832A8721E22B87CF
:1009B0009C879D879F8722E2288B27E02B8B25E051
:1009C0002C8B8E8B20E430E0388F2F8B998F828197
:1009D0008B8395858685998B8A8B838180688D8BA7
:1009E00049E150E0BE016F5F7F4F80E00E940D0241
:1009F00069960FB6F894DEBF0FBECDBFDF91CF91E1
:100A00000895CF93DF9380918101811167C081E0C8
:100A100080937401809375012AE731E03093770168
:100A200020937601109279011092780120E331E051
:100A3000309371012093700110927C0110927B0120
:100A400010927E0110927D0180937F01809380013E
:100A500081EC80937A010E94EB02FC0181819091EC
:100A60007401482F490F5527551F483051059CF5F3
:100A7000A281B381109709F520E731E03383228307
:100A80002081209372018093730180917501820F00
:100A9000808320917601A22FB09177018A2F821B4B
:100AA0008917C8F481813D91C82FD0E0C050DF4F35
:100AB00038838F5F8183F2CFD90118962D913C91B5
:100AC000199721153105C1F720E731E019963C93BC
:100AD0002E931897D5CF81E08093810180E791E034
:100AE000DF91CF910895CF93DF93CCE1D1E0DC018A
:100AF0009C01205F3F4FE8812296E23108F0E251ED
:100B0000F0E0E455FF4FE49180917B009E2F990F18
:100B1000990F90728F7D982B90937B008091130199
:100B200040E4849FC0011124E770E82BE0937C002F
:100B300080917A00806480937A0080917A0086FDAB
:100B4000FCCF80917800909179008D939D93A217AE
:100B5000B30789F6DF91CF910895CF93C091220218
:100B600081E090E00E94B913C81729F06C2F81E052
:100B700090E00E94C11382E292E0CF910895CF935A
:100B8000C091140190E080E00E94B913C81729F0C9
:100B90006C2F90E080E00E94C113C091150181E0AC
:100BA00090E00E94B913C81729F06C2F81E090E003
:100BB0000E94C11384E191E0CF910895FC0101905E
:100BC0000020E9F73197AF01481B590BBC0182EDBA
:100BD00091E00C9430038F929F92AF92BF920F934B
:100BE0001F93CF93DF93CDB7DEB7A1970FB6F894DD
:100BF000DEBF0FBECDBF19A2423008F44AE08E011D
:100C00000F5D1F4F842E912CB12CA12CA5019401B6
:100C10000E941A14E62FB901CA01EA30F4F4E05D2B
:100C2000D801EE938D01232B242B252B79F790E00F
:100C300080E0109719F0CD010E94DE05A1960FB655
:100C4000F894DEBF0FBECDBFDF91CF911F910F9102
:100C5000BF90AF909F908F900895E95CE1CFCF93C4
:100C6000DF930E94DE05EC0184E591E00E94DE0541
:100C70008C0F9D1FDF91CF9108950C94DE05CF92CC
:100C8000DF92EF92FF92CF93DF9397FF1BC06B0130
:100C90007C016DE282ED91E00E944603EC01662743
:100CA0007727CB016C197D098E099F094AE00E94C4
:100CB000EB058C0F9D1FDF91CF91FF90EF90DF90A0
:100CC000CF9008954AE0DF91CF91FF90EF90DF90B1
:100CD000CF900C94EB05BC01990F880B990B0C94E9
:100CE0003F06CF93DF930E946B06EC0184E591E011
:100CF0000E94DE058C0F9D1FDF91CF910895CF9349
:100D0000DF93682F70E090E080E04AE00E94EB05FE
:100D1000EC0184E591E00E94DE058C0F9D1FDF91C0
:100D2000CF9108956F927F928F929F92AF92BF92D0
:100D3000CF92DF92EF92FF920F931F93CF93DF93A7
:100D4000CDB7DEB764970FB6F894DEBF0FBECDBF48
:100D50003C014B015A0129873A870B871C87ED8696
:100D6000FE860E94010526E030E0AE01475F5F4F3E
:100D700061E00E942B046F86788A898A9A8AAB8AFE
:100D8000BC8A0E94010526E030E0AE01415F5F4F62
:100D900062E00E942B048E010F5F1F4F88E0F80174
:100DA00011928A95E9F7F6018081882321F081E08C
:100DB00090E09A838983F6018181882329F08981D3
:100DC0009A8182609A838983F6018581882329F03C
:100DD00089819A8184609A838983F601848188233A
:100DE00029F089819A8180619A838983F6018381C0
:100DF000882329F089819A8180629A838983F60108
:100E00008281882329F089819A8191609A838983DC
:100E1000C980DA8080916E0190916F018C159D05DB
:100E200061F00E94010524E030E0A80163E00E9427
:100E30002B04D0926F01C0926E0164960FB6F894A5
:100E4000DEBF0FBECDBFDF91CF911F910F91FF90FD
:100E5000EF90DF90CF90BF90AF909F908F907F905A
:100E60006F900895FB0144815581FC0124813581F7
:100E70002417350778F080819181009759F0FB01A4
:100E8000608171816115710529F00E94631621E06E
:100E9000892B09F020E0822F08950F931F93CF93A1
:100EA000DF93EC0188819981009759F02A813B8179
:100EB0002617370730F081E0DF91CF911F910F9116
:100EC00008958B016F5F7F4F0E948D15009759F039
:100ED000998388831B830A832C813D81232B59F7B7
:100EE000FC011082E8CF80E0E7CFCF93DF93EC01E5
:100EF00088819981009711F00E9404151982188247
:100F00001D821C821B821A82DF91CF910895EF927D
:100F1000FF920F931F93CF93DF938C017B01EB0123
:100F200009900020E9F72197C61BD70BBE010E944C
:100F30004D07811109C0C801DF91CF911F910F9119
:100F4000FF90EF900C947507F801D583C483B70127
:100F500080819181DF91CF911F910F91FF90EF9050
:100F60000C945C169F92AF92BF92CF92DF92EF9259
:100F7000FF920F931F93CF93DF93EC016B015A0104
:100F8000DB011496ED90FC90E416F50620F48B2D11
:100F90005701E42EF82E198218821B821A821D82B4
:100FA0001C8266E571E0CE010E948707F60104818C
:100FB0001581A016B10658F5E016F10608F4870170
:100FC000D601ED91FC911197E00FF11F90801082F6
:100FD000ED90FC90EA0CFB1CE114F10471F0F701B8
:100FE00001900020E9F731975F01AE18BF08B50105
:100FF000CE010E944D07811117C0CE010E947507D6
:10100000F60180819181080F191FD8019C92CE01B1
:10101000DF91CF911F910F91FF90EF90DF90CF90D4
:10102000BF90AF909F900895BD82AC82B701888138
:1010300099810E945C16E4CFFC0180819181009728
:1010400011F00C94041508951F920F920FB60F9291
:1010500011242F933F938F939F93AF93BF938091CE
:10106000CE019091CF01A091D001B091D1013091EA
:10107000C70123E0230F2D3758F50196A11DB11D9F
:101080002093C7018093CE019093CF01A093D0010C
:10109000B093D1018091C8019091C901A091CA017A
:1010A000B091CB010196A11DB11D8093C801909311
:1010B000C901A093CA01B093CB01BF91AF919F9199
:1010C0008F913F912F910F900FBE0F901F90189509
:1010D00026E8230F0296A11DB11DD2CF1F920F92B9
:1010E0000FB60F9211248F939F938091E1009091FE
:1010F000E100937F9093E10083FF0FC01092E9001D
:1011000091E09093EB001092EC0092E39093ED004D
:101110001092CD0198E09093F00082FF22C093E0FE
:101120009093E9009091F200992319F09AE390933B
:10113000E80090919A01992341F090919A01915081
:1011400090939A01911101C05D9A9091CC019923DD
:1011500041F09091CC0191509093CC01911101C03C
:10116000289A84FF18C08091E2008E7E816080936F
:10117000E2008091E1008F7E8093E10080919B01ED
:101180008E7E806180939B019F918F910F900FBE07
:101190000F901F90189580FFF7CF8091E2008E7E10
:1011A00080618093E2008091E1008E7E8093E10077
:1011B00080919B018E7E8160E5CF1F920F920FB6CA
:1011C0000F921124CF92DF92EF92FF920F931F9311
:1011D0002F933F934F935F936F937F938F939F933F
:1011E000AF93BF93EF93FF93CF93DF93CDB7DEB76A
:1011F0006C97DEBFCDBF1092E9008091E80083FFBD
:1012000025C068E0CE0145960E94DE0282EF809301
:10121000E8008D8987FF39C09091E80090FFFCCFEE
:10122000982F907609F034C19E894F89588D2F8967
:10123000F88C911131C0803861F580919C018093C8
:10124000F1001092F1008EEF8093E8006C960FB6DB
:10125000F894DEBF0FBECDBFDF91CF91FF91EF912C
:10126000BF91AF919F918F917F916F915F914F91BE
:101270003F912F911F910F91FF90EF90DF90CF90B2
:101280000F900FBE0F901F9018959EEF9093E8005F
:10129000C7CF1092F100D5CF913059F48111D3CF3F
:1012A0004130510581F680919C018D7F80939C0196
:1012B000CACF933049F48111C6CF4130510519F698
:1012C00080919C018260F2CF953041F48091E800DA
:1012D00080FFFCCF20682093E300B5CF963009F063
:1012E000A9C00B8D1C8D22E01092E900109298018C
:1012F00010929701F2122EC0109296011092950151
:101300000E94FF021F8299E09983FA8291E09E83F6
:1013100090EA98879AEF99872091970130919801E8
:10132000275F3F4F3C832B838D831092E9001092FF
:10133000980110929701109396010093950149E04E
:1013400050E0BE016F5F7F4F80E00E940D020E945F
:10135000FF0279CF10939601009395010E94EB0252
:10136000DC0112960D911C910115110509F451C172
:10137000D801ED91FC910480F581E02DBE016B5EFA
:101380007F4FC8010995009709F03EC1F80100851B
:101390001185EACFF3E0FF120EC08F89882309F48C
:1013A00040C0823061F440E86AE088E191E00E9448
:1013B000DA01811148CF81E28093EB0047CF813081
:1013C00029F440E867E080E191E0F1CF833099F7BC
:1013D0000E94EB02DC011296ED90FC908E010F5FF3
:1013E0001F4F6801E114F10479F0D701ED91FC91F0
:1013F0000680F781E02DB801C7010995080F111D7E
:10140000F701E084F184EECFD8011C92F60101903F
:101410000020E9F73197BF016C197D0940E0C60152
:10142000C6CF6AEF70E0FB01449150E080E80E9473
:101430000D0209CF973009F4BECF983021F481E036
:101440008093F10000CF993009F0FDCE837009F050
:10145000B2CFE1E0F1E081E031E096E32191222397
:1014600071F08093E9003093EB00DF0111972C912C
:101470002093EC009093ED008F5F873079F78EE733
:101480008093EA001092EA008F898093CD01DBCE31
:101490008B8D9C8D1092E90010929801109297010B
:1014A0009093960180939501898D811192C08E89C8
:1014B0009D89913A49F4813209F07DCF47E050E0AF
:1014C0006BE071E080E0B3CF913209F074CF8332EA
:1014D00069F48F89988DB0E0A0E080930701909324
:1014E0000801A0930901B0930A01ADCE803269F4DE
:1014F0008091E80082FFFCCF67E08BE091E00E94E2
:10150000DE028BEF8093E8009ECE823209F09BCE04
:101510008F8980931201EEEFFFE7859194918B3FC5
:101520009C4D51F1E0E0F8E080910B0190910C01AD
:10153000A0910D01B0910E01803B9440A105B10531
:10154000F1F48091120180FD1AC0EE3F8AE0F807A5
:1015500089F587E797E79183808380916000809386
:10156000990188E19BE00FB6F894A89580936000FC
:101570000FBE9093600067CEEEEFFAE0D5CF80818A
:1015800091818737974709F05ECEA89580916000DA
:101590008861809360008091990180936000EE3FA4
:1015A0002AE0F20789F08091FE0A9091FF0A918368
:1015B000808349CE808191818737980751F290933B
:1015C000FF0A8093FE0AC5CF1092FF0A1092FE0A0E
:1015D0003ACE0E94EB02DC0112960D911C9101158E
:1015E000110509F4E8CED801ED91FC910190F0814C
:1015F000E02DBE016B5E7F4FC8010995811123CE9E
:10160000F80100851185EBCF181619060CF41BCED6
:10161000D2CEF1E0FF12BECE6EEF70E004CFCF93DA
:10162000DF93CDB7DEB7CB56D1090FB6F894DEBF46
:101630000FBECDBF789484B5826084BD84B58160CF
:1016400084BD85B5826085BD85B5816085BD80918D
:101650006E00816080936E00109281008091810005
:1016600082608093810080918100816080938100FD
:1016700080918000816080938000809191008260E1
:10168000809391008091910081608093910080917E
:1016900090008160809390008091C100846080936D
:1016A000C1008091C10082608093C1008091C1001F
:1016B00081608093C1008091C30081608093C300EA
:1016C0008091C00082608093C0008091C2008160E0
:1016D0008093C20080917A00846080937A00809128
:1016E0007A00826080937A0080917A008160809392
:1016F0007A0080917A00806880937A001092CD0100
:1017000010929C0110929B018091D7008160809380
:10171000D70080EA8093D80089B5806189BD89B5FA
:10172000826089BD09B400FEFDCF61E070E080E019
:1017300090E00E947A018091D8008F7C8061809334
:10174000D8008091E000807F8093E0008091E100EC
:101750008E7E8093E1008DE08093E200559A209A7E
:1017600090E080E00E94B9138093140181E090E042
:101770000E94B91380931501009114011091150175
:10178000B801012E000C880B990B0E9457136B01B6
:101790007C01AC019B010E94151481111BC0E894CF
:1017A000F7F82FEF3FEF4FE75FE7C701B6010E9461
:1017B000151481110AC02FEF3FEF4FE75FE7C70114
:1017C000B6010E94501318162CF001501109063969
:1017D000110540F088E090E090931501809314018A
:1017E0000E94BF0581E090E00E94B913809322021D
:1017F000682F70E090E080E00E9455139B01AC01DF
:101800000E941514882321F0109222020E94AD0537
:101810008091A301811113C010929E0110929D012D
:101820008FE391E09093A00180939F0186E590E083
:101830009093A2018093A10181E08093A3010E9473
:101840000105FC01A385B485109709F0A6C08DE9B8
:1018500091E094878387858596852091A1013091B9
:10186000A201820F931F968785878FEF9FEF90933A
:10187000DF018093DE0164E670E080E090E00E948A
:101880007A0124E531E08AE491E066969FAF8EAF5D
:1018900066976696AEADBFAD66978D919D91669643
:1018A000BFAFAEAF66979927FC01EE53FE4F449150
:1018B0008D559E4FFC0184918823C9F090E0880FDC
:1018C000991FFC01EF5CFE4FA591B491FC01ED5D09
:1018D000FE4F659174919FB7F8945C91842F809529
:1018E00085238C93DB01EC914E2B4C939FBF669626
:1018F000EEADFFAD66972E173F0709F0CACF83E024
:101900008093130168EE73E080E090E00E947A011A
:1019100087EB91E00E94730587EB91E00E947305CD
:101920009E01275C3F4F21963FAF2EAF219782ED5E
:1019300091E00E94EE03892B09F4BBC01A8A198A30
:101940001C8A1B8A1E8A1D8A66E571E0CE014196BB
:101950000E9487070E948A0397FD29C08A3091055B
:1019600031F189831A820D891E890F5F1F4FB801DB
:10197000CE0141960E944D07882361F329893A8957
:101980008D899E89BE016F5F7F4F820F931F0E94DA
:101990005C161E8B0D8BDECFDC018D919C91119717
:1019A0000097D1F78DE991E08D939C9354CFC9882E
:1019B000DA88C114D10439F00D891E897601011528
:1019C000110509F0ADC01A8219821C821B821E8289
:1019D0001D8269E571E0CE0101960E948707BE0174
:1019E0006F5F7F4FCE0141960E943207182FCE01C4
:1019F00001960E941C08112309F4CCC044E050E079
:101A0000BE016F5E7F4FCE0101960E94B2078981B1
:101A10009A81009709F4BAC00E940B1370931501C4
:101A2000609314010E94BF058091140190911501EB
:101A30000E947106CE0101960E941C081A8219822A
:101A40001C821B821E821D8267E571E0CE01019619
:101A50000E948707BE016F5F7F4FCE0141960E94B3
:101A60003207182FCE0101960E941C08112309F499
:101A7000A6C046E050E0BE016F5E7F4FCE010196EA
:101A80000E94B20789819A8160E0009711F00E945C
:101A90000B13609322020E94AD05809122020E94E6
:101AA0007F06CE0101960E941C08CE0141960E943D
:101AB0001C08CE0141960E947305CE01CA96AAE485
:101AC000B1E04D915D915527FA01EF51FE4F3491F0
:101AD000FA01EE53FE4F24914D555E4FFA014491A9
:101AE000442309F48EC3332309F481C031503F30BD
:101AF00008F07DC0E32FF0E0E058F24F0C945B1447
:101B0000DC10E010F20DD410D810F70DF70DF70D22
:101B1000E310E910ED10F110F710F70DFB1075014F
:101B200057013FEFA31AB30AD7018C91082E000C7E
:101B3000990B0E944713892B91F7015011090C0D45
:101B40001D1DF8018081082E000C990B0E9447137F
:101B5000892B31F00E151F0518F001501109F1CF36
:101B60000F5F1F4FA8014E195F095E8B4D8BCE147E
:101B7000DF0420F4B701C6010E944A16E989FA89F8
:101B80008D899E89E80FF91F10821DCF60E070E0FB
:101B9000CB0144CF8D899E89892B09F44FCF60E614
:101BA00071E089899A890E945316892B09F046CFE2
:101BB00080911401909115010E9471063FCF8D898B
:101BC0009E89892B09F471CF6EE571E089899A8924
:101BD0000E945316892B09F068CF809122020E943F
:101BE0007F0663CF309180003F7730938000E42FF1
:101BF000F0E0EE0FFF1FEB56FE4F45915491FA01B6
:101C00003081232351E040E009F450E0252F342FA8
:101C1000F1E02F27FC012193CF0166962EAD3FAD59
:101C200066972A173B0709F04CCF19AE8FB7F89487
:101C30004091CE015091CF016091D0017091D101BE
:101C40008FBF4093B3015093B4016093B50170937B
:101C5000B6018091B201823009F461C308F0D4C2A8
:101C6000882309F4FDC2813009F430C367EBE62E06
:101C700061E0F62EAE014F5E5F4FFE01319667ECDC
:101C800071E09F01D7018D919D917D01DA010D9148
:101C90001D91AD01801B910BD9018D939D939D01E9
:101CA0006E157F0579F72091140130911501AA274F
:101CB000BB27A21BB30BBF01605F7F4F8081918167
:101CC000821793070CF055C3A817B9070CF051C33E
:101CD0001182108232966E177F0781F7EB81FC81AB
:101CE0006896FFAFEEAF689729813A816A963FAF59
:101CF0002EAF6A9789859A8523969FAF8EAF2397DB
:101D0000AB85BC852796BFAFAEAF27978D809E80F1
:101D1000EF81F8856296FFAFEEAF6297AF84B88827
:101D20002D853E8564963FAF2EAF649784010E1BD0
:101D30001F0B0A0D1B1D021B130B17FF02C00F5FA9
:101D40001F4F159507956801012E000CEE08FF083E
:101D500068968EAD9FAD68976A96AEADBFAD6A9737
:101D60008A0F9B1F2B969FAF8EAF2B97880D991DC7
:101D70006296EEADFFAD62978E0F9F1F23962EAD3C
:101D80003FAD2397820F931F2796AEADBFAD279728
:101D90008A0F9B1F6496EEADFFAD64978E0F9F1F59
:101DA0008A0D9B1D97FD03969C01359527953595CA
:101DB0002795A2963FAF2EAFA2972901330F660851
:101DC00077086896AEADBFAD68976A968EAD9FAD49
:101DD0006A97A81BB90B2396EEADFFAD2397AE0F04
:101DE000BF1F27962EAD3FAD2797A21BB30BB7FDA4
:101DF0001196B595A79524E630E00E94611422E380
:101E000030E040E050E00E943C14A6962CAF3DAF7D
:101E10004EAF5FAFA69724E630E0D8010E94611470
:101E200022E330E040E050E00E943C14322E2E9637
:101E30003FAF2E972F964FAF2F9760965FAF60976B
:101E40002C962FAF2C972D963FAF2D972B96AEAD9E
:101E5000BFAD2B9723968EAD9FAD2397A81BB90BD3
:101E60002796EEADFFAD2797AE1BBF0BB7FD1196C2
:101E7000B595A79524E630E00E9461146E966CAF8C
:101E80007DAF8EAF9FAF6E9726E930E040E050E027
:101E90000E943C146F962FAF6F97A0963FAFA0970C
:101EA000AB964FAFAB97AC965FAFAC972A962FAF80
:101EB0002A97232E6496AEADBFAD6497AA0DBB1DC5
:101EC000A819B90962962EAD3FAD6297A21BB30B5C
:101ED000B7FD1196B595A79524E630E00E946114F0
:101EE00026E930E040E050E00E943C14AA962CAF76
:101EF0003DAF4EAF5FAFAA976A96AEADBFAD6A97E2
:101F0000A80DB91D23968EAD9FAD2397A80FB91FBD
:101F10006496EEADFFAD6497AE0FBF1F68962EAD11
:101F20003FAD6897A21BB30B62968EAD9FAD6297D3
:101F3000A81BB90B2796EEADFFAD2797AE1BBF0BC5
:101F4000AA19BB09B7FD1396B595A795B595A795A1
:101F500024E630E00E94611422E330E040E050E0EB
:101F60000E943C14A6968CAD9DADAEADBFADA697BC
:101F7000B095A095909581959F4FAF4FBF4F2596F7
:101F80008CAF9DAFAEAFBFAF2597AA968CAC9DAC82
:101F9000AEACBFACAA97B094A09490948094811CEE
:101FA000911CA11CB11C88279927DC01821B930B73
:101FB000A40BB50B29968CAF9DAFAEAFBFAF2997E1
:101FC00080912202813009F0EBC12396AEADBFAD06
:101FD0002397BEA7ADA7832D2E969FAD2E9798ABC6
:101FE0008FA7A296EEADFFADA297FAABE9AB6F96C5
:101FF0008FAD6F97A0969FADA0979CAB8BAB9EAA21
:102000008DAA27962EAD3FAD279738AF2FABAE01E7
:10201000435D5F4FFE01B1969F01DA018D919D9165
:10202000AD0197FF03C0919581959109D9018D93D9
:102030009D939D0121968EAD9FAD219784179507A5
:1020400061F7DF0140E01FEF90E080E02D913D91CE
:102050008217930714F4142FC9014F5F4630B1F76C
:102060000FEF30E020E090E080E0612F012E000CC7
:10207000770B41915191241735072CF46817790794
:1020800011F0082F9A0101968630910591F71123DE
:10209000C1F0002309F430C225966CAD7DAD8EAD44
:1020A0009FAD259722E030E040E050E00E943C14D4
:1020B00025962CAF3DAF4EAF5FAF2597113009F499
:1020C00039C2013009F41FC2123009F443C2023090
:1020D00009F420C2C301B20122E030E040E050E048
:1020E0000E943C142901133009F448C2033009F45A
:1020F00015C26E966CAD7DAD8EAD9FAD6E972CE228
:1021000031E040E050E00E943C142A962FAF2A971D
:10211000232E143071F0043009F404C2C501B40157
:1021200022E030E040E050E00E943C1449011530CC
:10213000A1F0053091F029966CAD7DAD8EAD9FADCF
:10214000299722E030E040E050E00E943C142996BC
:102150002CAF3DAF4EAF5FAF29972C96CFAE2C97EB
:102160002D96DFAE2D97DE01D9966D0172012C966A
:102170000FAD2C972D961FAD2D9723962EAD3FAD0D
:10218000239727964EAD5FAD2797B4012A968FAD62
:102190002A97922D0E94920680E090E0892B09F404
:1021A000C6CB0E940000BCCB309180003F7D1DCD8E
:1021B00030918000377F19CD34B53F7734BD17CDCE
:1021C00034B53F7DFBCF309190003F773093900046
:1021D0000ECD309190003F7DF9CF30919000377F48
:1021E000F5CF3091C0003F773093C00000CD3091E3
:1021F000C0003F7DF9CF3091C200377F3093C200DD
:10220000F6CC30E020E004CD833009F49BC084306C
:1022100009F02CCD8AAD81110BC08BAD811108C0A6
:102220008CAD811105C08EAD811102C01092B2013A
:102230001EAE1CAE1BAE1AAE19AE8091AC019091D1
:10224000AD01019709F412CDE091AB01A9E3B0E033
:10225000AC0FBD1FAE0FB11DFD0181E0808306CD27
:102260008BAD81110AC09EAD911107C09AAD91113D
:1022700004C09CAD992309F4F9CC91E09093B2018C
:102280004093AE015093AF016093B0017093B101E0
:10229000811103C08EAD882341F01092AD011092E0
:1022A000AC0184E691E00E942F068AAD811103C043
:1022B0008CAD882331F081E090E09093AD01809364
:1022C000AC011EAE1CAE1BAE1AAED0CC8091AE01DE
:1022D0009091AF01A091B001B091B101481B590B91
:1022E0006A0B7B0B83E0403151056105710568F491
:1022F0008091AC019091AD01009751F48BAD882392
:1023000001F38EAD8823E9F282E08093B201D9CF48
:102310000197B9F68AAD8823A1F28CADF3CF8091F5
:10232000AC019091AD01009731F481E089AF10923A
:10233000AB0184E0EACF0197E1F787EB91E00E94DF
:102340007305F5CF94E09093B2012091AC013091E8
:10235000AD01232B49F48BAD882321F082E08093DB
:10236000AB0184CC85E0FBCF9AAD9923C1F381E02A
:10237000F6CF41E050E097FF02C04EEF5FEF97FFCE
:1023800003C0919581959109821B930B849F8001D5
:10239000859F100D949F100D1124118300839ACCFA
:1023A000823009F0E0CEA696CCACDDACEEACFFAC52
:1023B000A697F7FE06C02596CCACDDACEEACFFAC24
:1023C000259780E01C141D041CF08FEFD12CC12C2C
:1023D000E32C2E96FFAC2E972F960FAD2F9760967D
:1023E0001FAD609717FF08C010950095F094E0941A
:1023F000E11CF11C011D111DCE14DF0414F4670152
:1024000081E0720177FE07C0EE24FF248701E41803
:10241000F50806091709CE14DF0414F4670182E0F9
:102420006F96EFAC6F97A096FFACA097AB960FADF1
:10243000AB97AC961FADAC9717FF08C010950095F1
:10244000F094E094E11CF11C011D111DCE14DF0479
:1024500014F4670183E0AA96ECACFDAC0EAD1FADA1
:10246000AA9717FD7401CE14DF0414F4670184E009
:10247000BA01A90177FF06C029964CAD5DAD6EADDE
:102480007FAD2997C416D5060CF485C0882309F4BE
:1024900099C0813009F4A3C029961CAE1DAE1EAEB2
:1024A0001FAE2997823049F08330D9F0843001F58E
:1024B0002A961FAE2A97212C17C0812C912C5401EB
:1024C0002A961FAE2A97212C2C961FAE2C972D965C
:1024D0001FAE2D9725961CAE1DAE1EAE1FAE2597C6
:1024E00042CE812C912C5401412C512C3201ECCF45
:1024F000812C912C5401DCCF1130C1F4C32C2E96C9
:10250000DFAC2E97E7CD1230C9F7C32C2E96DFAC87
:102510002E97EFCD133009F401CEEBCD143009F432
:102520000ACEFCCD153009F418CE05CE123009F4D0
:10253000E0CDD0CD023049F3C301B20122E030E05A
:1025400040E050E00E943C142901C32C2E96DFACE1
:102550002E97CCCD033009F4E1CD6E966CAD7DADF8
:102560008EAD9FAD6E972CE231E040E050E00E94CE
:102570003C142A962FAF2A97232ECDCD043009F490
:10258000DACDC501B40122E030E040E050E00E9425
:102590003C144901CECD25961CAE1DAE1EAE1FAE1D
:1025A00025972C961FAE2C972D961FAE2D97812C1C
:1025B000912C54012A961FAE2A97212C412C512C84
:1025C0003201D1CD2C961FAE2C972D961FAE2D9794
:1025D00029961CAE1DAE1EAE1FAE2997E8CF2596DC
:1025E0001CAE1DAE1EAE1FAE2597F2CFE2EDF1E0A0
:1025F0001382128288EE93E0A0E0B0E0848395839A
:10260000A683B7838CE391E0918380838FEF9FEF64
:102610009587848708951F93FC0199278827BC011B
:10262000E89411911032E9F3193010F01E30C8F31C
:102630001B3251F01D3249F4689406C00E943213D7
:10264000610F711D811D911D119110531A30B0F34E
:102650003EF490958095709561957F4F8F4F9F4F79
:102660001F910895592F482F372F262F660F771F58
:10267000881F991F660F771F881F991F620F731F8E
:10268000841F951F660F771F881F991F089591114A
:102690000C94B613803219F089508550C8F708950C
:1026A0000E94921308F481E00895E89409C097FB12
:1026B0003EF490958095709561957F4F8F4F9F4F19
:1026C0009923A9F0F92F96E9BB279395F69587955D
:1026D00077956795B795F111F8CFFAF4BB0F11F420
:1026E00060FF1BC06F5F7F4F8F4F9F4F16C08823C7
:1026F00011F096E911C0772321F09EE8872F762FFD
:1027000005C0662371F096E8862F70E060E02AF03D
:102710009A95660F771F881FDAF7880F9695879529
:1027200097F90895990F0008550FAA0BE0E8FEEFFE
:1027300016161706E807F907C0F012161306E40785
:10274000F50798F0621B730B840B950B39F40A267E
:1027500061F0232B242B252B21F408950A2609F45C
:10276000A140A6958FEF811D811D08959927882787
:102770000895F999FECF92BD81BDF89A992780B549
:102780000895262FF999FECF1FBA92BD81BD20BDB5
:102790000FB6F894FA9AF99A0FBE019608952F92FF
:1027A0003F924F925F926F927F928F929F92AF92E1
:1027B000BF92CF92DF92EF92FF920F931F93CF932E
:1027C000DF93CDB7DEB7CA1BDB0B0FB6F894DEBFC5
:1027D0000FBECDBF09942A88398848885F846E84EB
:1027E0007D848C849B84AA84B984C884DF80EE8035
:1027F000FD800C811B81AA81B981CE0FD11D0FB63E
:10280000F894DEBF0FBECDBFED010895A29FB001C9
:10281000B39FC001A39F700D811D1124911DB29F14
:10282000700D811D1124911D08950E949213880B33
:10283000990B0895A1E21A2EAA1BBB1BFD010DC026
:10284000AA1FBB1FEE1FFF1FA217B307E407F50760
:1028500020F0A21BB30BE40BF50B661F771F881F3C
:10286000991F1A9469F760957095809590959B01D2
:10287000AC01BD01CF010895052E97FB1EF4009415
:102880000E94531457FD07D00E941A1407FC03D06E
:102890004EF40C94531450954095309521953F4F2C
:1028A0004F4F5F4F089590958095709561957F4F3C
:1028B0008F4F9F4F0895EE0FFF1F0590F491E02D6D
:1028C00009940E940614B7FF0895821B930B089584
:1028D0000F931F93CF93DF938230910510F482E022
:1028E00090E0E0912502F091260230E020E0B0E097
:1028F000A0E0309799F42115310509F44AC0281B4E
:10290000390B24303105D8F58A819B816115710519
:1029100089F1FB0193838283FE0111C040815181C3
:102920000281138148175907E0F04817590799F4B5
:10293000109761F012960C93129713961C9332968F
:10294000CF01DF91CF911F910F9108950093250240
:1029500010932602F4CF2115310551F04217530789
:1029600038F0A901DB019A01BD01DF01F801C1CFF7
:10297000EF01F9CF9093260280932502CDCFFE017F
:10298000E20FF31F819391932250310939832883F9
:10299000D7CF2091230230912402232B41F42091A0
:1029A00018013091190130932402209323022091C1
:1029B0001601309117012115310541F42DB73EB7AD
:1029C00040911A0150911B01241B350BE091230209
:1029D000F0912402E217F307A0F42E1B3F0B2817F7
:1029E000390778F0AC014E5F5F4F2417350748F088
:1029F0004E0F5F1F509324024093230281939193C3
:102A00009FCFF0E0E0E09CCFCF93DF930097E9F019
:102A1000FC01329713821282A0912502B091260206
:102A2000ED0130E020E01097A1F420813181820F88
:102A3000931F20912302309124022817390709F0AF
:102A400061C0F0932402E0932302DF91CF910895B7
:102A5000EA01CE17DF07E8F54A815B819E01411547
:102A60005105B1F7E901FB83EA8349915991C40FFC
:102A7000D51FEC17FD0761F4808191810296840FC8
:102A8000951FE90199838883828193819B838A833F
:102A9000F0E0E0E012968D919C9113970097B9F5C4
:102AA0002D913C911197CD010296820F931F209199
:102AB0002302309124022817390739F6309751F54F
:102AC0001092260210922502B0932402A0932302B2
:102AD000BCCFD383C28340815181840F951FC81717
:102AE000D90761F44E5F5F4F88819981480F591F64
:102AF000518340838A819B81938382832115310591
:102B000009F0B0CFF0932602E09325029ECFFD019D
:102B1000DC01C0CF13821282D7CFB0E0A0E0E3E99E
:102B2000F5E10C94D1138C01009751F4CB010E9474
:102B300068148C01C801CDB7DEB7E0E10C94ED1349
:102B4000FC01E60FF71F9C0122503109E217F30741
:102B500008F49DC0D901CD91DC911197C617D70714
:102B600098F0C530D10530F3CE010497861797074A
:102B700008F3C61BD70B2297C193D1936D937C9317
:102B8000CF010E940415D6CF5B01AC1ABD0A4C01DF
:102B90008C0E9D1EA0912502B0912602512C412C35
:102BA000F12CE12C109731F58091230290912402B1
:102BB0008815990509F05CC04616570608F058C0FC
:102BC0008091160190911701009741F48DB79EB73F
:102BD00040911A0150911B01841B950BE817F907CE
:102BE00008F055C0F0932402E0932302F9017183A9
:102BF0006083A0CF8D919C91119712966C90129743
:102C000013967C901397A815B90559F56C0142E00D
:102C1000C40ED11CCA14DB0420F1AC014A195B09B3
:102C2000DA011296159780F0628273825183408395
:102C3000D9016D937C93E114F10471F0D7011396DF
:102C4000FC93EE93129776CF22968C0F9D1FF9017D
:102C500091838083F301EFCFF0932602E093250266
:102C600069CF4816590608F42C017D01D3019ACF8B
:102C7000CB010E9468147C01009749F0AE01B801B5
:102C80000E944A16C8010E940415870153CF10E024
:102C900000E050CFFB01DC0102C001900D924150D9
:102CA0005040D8F70895FB01DC018D910190801907
:102CB0000110D9F3990B0895FB01DC0101900D92ED
:102CC0000020E1F70895FB01DC014150504030F055
:102CD0008D910190801919F40020B9F7881B990B88
:062CE0000895F894FFCFF7
:102CE60000C18081000000FFFFFFFF00E10000003F
:102CF600000000010D0000002702800012001300F2
:102D060014001500180019001A001B00000000002E
:102D16000804B6047B046004000000004603300388
:102D260067035C03EE036C03CA0310000E00020087
:102D3600000001000D0A006877736574200068774B
:0E2D460067657400434F4D424F5F325F3500AA
:00000001FF
